:100000000C9462000C948A000C948A000C948A0070
:100010000C948A000C948A000C948A000C948A0038
:100020000C948A000C948A000C948A000C948A0028
:100030000C948A000C948A000C948A000C948A0018
:100040000C949F030C948A000C946D030C9447034A
:100050000C948A000C948A000C948A000C948A00F8
:100060000C948A000C948A000000000024002700F1
:100070002A0000000000250028002B0000000000DE
:1000800023002600290004040404040404040202DA
:100090000202020203030303030301020408102007
:1000A0004080010204081020010204081020000012
:1000B0000008000201000003040700000000000027
:1000C0000000D50511241FBECFEFD8E0DEBFCDBFA5
:1000D00011E0A0E0B1E0E6E9FCE002C005900D927D
:1000E000A231B107D9F721E0A2E1B1E001C01D9230
:1000F000A03CB207E1F710E0C2E6D0E004C02197CF
:10010000FE010E944306C136D107C9F70E942E04A2
:100110000C9449060C940000AF92BF92CF92DF92EC
:10012000EF92FF920F931F93CF93DF936C017B01AC
:100130008B01040F151FEB015E01AE18BF08C0173D
:10014000D10759F06991D601ED91FC910190F081B0
:10015000E02DC6010995892B79F7C501DF91CF9173
:100160001F910F91FF90EF90DF90CF90BF90AF90D5
:100170000895FC01538D448D252F30E0842F90E0AD
:10018000821B930B541710F0CF9608950197089592
:10019000FC01918D828D981761F0A28DAE0FBF2F5B
:1001A000B11D5D968C91928D9F5F9F73928F90E0B1
:1001B00008958FEF9FEF0895FC01918D828D981720
:1001C00031F0828DE80FF11D858D90E008958FEF5D
:1001D0009FEF0895FC01918D228D892F90E0805C26
:1001E0009F4F821B91098F73992708958BE191E0AE
:1001F0000E94EA0021E0892B09F420E0822F089573
:1002000080E090E0892B29F00E94F60081110C9487
:1002100000000895FC01A48DA80FB92FB11DA35AA9
:10022000BF4F2C91848D90E001968F739927848F16
:10023000A689B7892C93A089B1898C918370806439
:100240008C93938D848D981306C00288F389E02DDA
:1002500080818F7D80830895EF92FF920F931F938B
:10026000CF93DF93EC0181E0888F9B8D8C8D981369
:100270001AC0E889F989808185FF15C09FB7F89475
:10028000EE89FF896083E889F989808183708064C1
:1002900080839FBF81E090E0DF91CF911F910F910C
:1002A000FF90EF900895F62E0B8D10E00F5F1F4F1B
:1002B0000F731127E02E8C8D8E110CC00FB607FC2A
:1002C000FACFE889F989808185FFF5CFCE010E94B8
:1002D0000A01F1CFEB8DEC0FFD2FF11DE35AFF4F1B
:1002E000F0829FB7F8940B8FEA89FB898081806246
:1002F000CFCFCF93DF93EC01888D8823B9F0AA8903
:10030000BB89E889F9898C9185FD03C0808186FDD0
:100310000DC00FB607FCF7CF8C9185FFF2CF80811F
:1003200085FFEDCFCE010E940A01E9CFDF91CF9189
:100330000895833081F028F4813099F08230A9F05B
:1003400008958730A9F08830C9F08430B1F48091E5
:1003500080008F7D03C0809180008F778093800024
:10036000089584B58F7784BD089584B58F7DFBCFC4
:100370008091B0008F778093B00008958091B00095
:100380008F7DF9CFCF93DF93282F30E0F901E2552D
:10039000FF4F8491F901E656FF4FD491F901EA57D6
:1003A000FF4FC491CC23A1F081110E949901EC2F41
:1003B000F0E0EE0FFF1FE458FF4FA591B491EC91D0
:1003C000ED2381E090E009F480E0DF91CF91089582
:1003D00080E090E0FACF1F93CF93DF93282F30E097
:1003E000F901E255FF4F8491F901E656FF4FD49190
:1003F000F901EA57FF4FC491CC23A9F0162F8111C0
:100400000E949901EC2FF0E0EE0FFF1FEE58FF4F16
:10041000A591B4918FB7F894EC91111108C0D095C3
:10042000DE23DC938FBFDF91CF911F910895DE2BE8
:10043000F8CFCF93DF9390E0FC01E656FF4F249175
:100440008A579F4FFC0184918823D1F090E0880F58
:10045000991FFC01E859FF4FA591B491FC01EE589A
:10046000FF4FC591D49161110EC09FB7F8948C9144
:10047000E22FE0958E238C932881E223E8839FBFAF
:10048000DF91CF9108958FB7F894EC91E22BEC9324
:100490008FBFF6CF3FB7F894809117019091180164
:1004A000A0911901B0911A0126B5A89B05C02F3F54
:1004B00019F00196A11DB11D3FBFBA2FA92F982F8A
:1004C0008827BC01CD01620F711D811D911D42E085
:1004D000660F771F881F991F4A95D1F708958F924D
:1004E0009F92AF92BF92CF92DF92EF92FF924B0119
:1004F0005C010E944A026B017C010E944A026C1955
:100500007D098E099F09683E734081059105A8F316
:1005100021E0821A9108A108B10888EEC80E83E094
:10052000D81EE11CF11C81149104A104B10429F727
:10053000FF90EF90DF90CF90BF90AF909F908F9003
:1005400008950F931F93CF93C82F8B0161E00E94F2
:10055000EB012BE0209FC001219F900D1124880FFB
:10056000991F880F991F8553984F0197F1F760E005
:100570008C2F0E94EB0162E370E080E090E0CF916D
:100580001F910F910C946F0260E085E00E94EB01D7
:1005900060E086E00E94EB0160E087E00E94EB01F2
:1005A00060E088E00C94EB0161E085E00E94EB01E3
:1005B00060E086E00E94EB0161E087E00E94EB01D1
:1005C00060E088E00C94EB0160E085E00E94EB01C4
:1005D00060E086E00E94EB0161E087E00E94EB01B1
:1005E00060E088E00C94EB0161E085E00E94EB01A3
:1005F00060E086E00E94EB0160E087E00E94EB0192
:1006000060E088E00C94EB010F931F936AE070E0C8
:1006100080E090E00E946F0260E080E10E94EB01C8
:100620006AE070E080E090E00E946F0261E080E1AB
:100630000E94EB0183E290E00197F1F7EBEAF0E032
:100640006491E7E9F0E0E491F0E0EE0FFF1FE45879
:10065000FF4F8591949100E412E42FE030E0462FA3
:100660000E94E903611571058105910529F06F5F0D
:100670007F4F8F4F9F4F9F702AE330E040E050E064
:100680000E940206CA01B9011F910F9108951F929D
:100690000F920FB60F9211242F933F934F935F93B6
:1006A0006F937F938F939F93AF93BF93EF93FF933A
:1006B0008BE191E00E940A01FF91EF91BF91AF9110
:1006C0009F918F917F916F915F914F913F912F916A
:1006D0000F900FBE0F901F9018951F920F920FB69C
:1006E0000F9211242F938F939F93EF93FF93E09199
:1006F0002B01F0912C018081E0913101F0913201C8
:1007000082FD1BC09081809134018F5F8F73209197
:100710003501821741F0E0913401F0E0E55EFE4FD3
:10072000958F80933401FF91EF919F918F912F913D
:100730000F900FBE0F901F9018958081F4CF1F92DD
:100740000F920FB60F9211242F933F938F939F9385
:10075000AF93BF938091130190911401A091150163
:10076000B09116013091120123E0230F2D3758F577
:100770000196A11DB11D2093120180931301909346
:100780001401A0931501B093160180911701909167
:100790001801A0911901B0911A010196A11DB11D76
:1007A0008093170190931801A0931901B0931A0137
:1007B000BF91AF919F918F913F912F910F900FBE5D
:1007C0000F901F90189526E8230F0296A11DB11DCA
:1007D000D2CFCF92DF92EF92FF920F931F93E82F29
:1007E000F92F05C0015011092109310961F19081EA
:1007F00096239417B9F305C0015011092109310955
:1008000011F1908196239413F7CFC12CD12CE12CB8
:10081000F12C0AC08FEFC81AD80AE80AF80A0C159A
:100820001D052E053F0579F080818623841791F3FD
:100830006C2D7D2D8E2D9F2D1F910F91FF90EF9090
:10084000DF90CF90089560E070E080E090E01F912D
:100850000F91FF90EF90DF90CF900895789484B53A
:10086000826084BD84B5816084BD85B5826085BDAC
:1008700085B5816085BD80916E00816080936E003A
:10088000109281008091810082608093810080912C
:1008900081008160809381008091800081608093DD
:1008A00080008091B10084608093B1008091B0009D
:1008B00081608093B00080917A00846080937A0098
:1008C00080917A00826080937A0080917A008160C2
:1008D00080937A0080917A00806880937A001092E9
:1008E000C100E0912B01F0912C0182E08083E09126
:1008F0002701F09128011082E0912901F0912A014D
:100900008FEC808310923301E0912F01F091300140
:1009100086E08083E0912D01F0912E01808180613D
:100920008083E0912D01F0912E0180818860808389
:10093000E0912D01F0912E01808180688083E0910B
:100940002D01F0912E0180818F7D808361E085E013
:100950000E94190261E086E00E94190261E087E0CE
:100960000E94190261E088E00E94190260E08EE0B6
:100970000E94190260E08FE00E94190261E080E1AC
:100980000E94190260E081E10E94190261E083E1A6
:100990000E941902C6E4D0E0BE0183E190E00E940B
:1009A000A1022596C139D105B9F7CCE8D0E0BE0146
:1009B00083E190E00E94A1022597CB3F8FEFD807FB
:1009C000B1F7D0E0C0E0BE0183E190E00E94A10257
:1009D0002596CB34D105B9F70E9404037093BF016B
:1009E0006093BE0164E170E080E090E00E946F02DD
:1009F00000E010E00E9404037B017093BF0160934C
:100A0000BE018EE00E94C201EC019093BD01809373
:100A1000BC018FE00E94C201C130D10509F0B0C015
:100A20008130910509F0B5C08FE0E816F10464F05B
:100A30000E94D40201151105E9F20E94F6008823F4
:100A4000C9F20E940000D6CF0E94C40268EE73E093
:100A500080E090E00E946F02C6E4D0E0BE0183E136
:100A600090E00E94A1022596C139D105B9F76CE248
:100A700071E080E090E00E946F020E940403709396
:100A8000BB016093BA01CCE8D0E0BE0183E190E005
:100A90000E94A1022597CB3F8FEFD807B1F76CE2F8
:100AA00071E080E090E00E946F020E9404037B01ED
:100AB0007093B9016093B801D0E0C0E0BE0183E15A
:100AC00090E00E94A1022596CB34D105B9F762E3EC
:100AD00070E080E090E00E946F028091BA019091F6
:100AE000BB01E816F9064CF50E94F40264EF71E0D0
:100AF00080E090E00E946F020E94D40268E572E0FC
:100B000080E090E00E946F020E94E40264EF71E0D6
:100B100080E090E00E946F020E94D40268E572E0DB
:100B200080E090E00E946F020E94E40264EF71E0B6
:100B300080E090E00E946F027DCF0E94E40264EFAB
:100B400071E080E090E00E946F020E94D40268E5AC
:100B500072E080E090E00E946F020E94F40264EF75
:100B600071E080E090E00E946F020E94D40268E58C
:100B700072E080E090E00E946F020E94F402D6CF03
:100B8000CD2B09F057CF8130910549F40E94E40242
:100B900051CF892B09F04ECF0E94F4024BCF892B05
:100BA00009F048CF0E94C40245CFEBE1F1E0138287
:100BB000128288EE93E0A0E0B0E084839583A68360
:100BC000B78384E091E09183808385EC90E0958702
:100BD000848784EC90E09787868780EC90E0918B07
:100BE000808B81EC90E0938B828B82EC90E0958BF4
:100BF000848B86EC90E0978B868B118E128E138EF1
:100C0000148E0895052E97FB1EF400940E94190679
:100C100057FD07D00E94210607FC03D04EF40C9428
:100C2000190650954095309521953F4F4F4F5F4F96
:100C3000089590958095709561957F4F8F4F9F4F48
:100C40000895A1E21A2EAA1BBB1BFD010DC0AA1F0D
:100C5000BB1FEE1FFF1FA217B307E407F50720F025
:100C6000A21BB30BE40BF50B661F771F881F991FA0
:100C70001A9469F760957095809590959B01AC01E9
:100C8000BD01CF010895EE0FFF1F0590F491E02DF7
:060C90000994F894FFCF67
:100C9600000000002C018C00B9007901EA00C800B0
:020CA600DC0070
:00000001FF
